{
  "contractName": "Auction",
  "abi": [
    {
      "inputs": [
        {
          "internalType": "string",
          "name": "_title",
          "type": "string"
        },
        {
          "internalType": "string",
          "name": "_description",
          "type": "string"
        },
        {
          "internalType": "uint256",
          "name": "_bidding_duration",
          "type": "uint256"
        },
        {
          "internalType": "uint256",
          "name": "_reveal_duration",
          "type": "uint256"
        },
        {
          "internalType": "uint256",
          "name": "_closed_duration",
          "type": "uint256"
        },
        {
          "internalType": "address",
          "name": "_seller",
          "type": "address"
        },
        {
          "internalType": "uint256",
          "name": "_minimum_bid",
          "type": "uint256"
        },
        {
          "internalType": "address",
          "name": "_spawner_addr",
          "type": "address"
        }
      ],
      "stateMutability": "nonpayable",
      "type": "constructor"
    },
    {
      "inputs": [
        {
          "internalType": "bytes32",
          "name": "bidHash",
          "type": "bytes32"
        }
      ],
      "name": "bid",
      "outputs": [
        {
          "internalType": "bool",
          "name": "",
          "type": "bool"
        }
      ],
      "stateMutability": "nonpayable",
      "type": "function"
    },
    {
      "inputs": [
        {
          "internalType": "uint256",
          "name": "amount",
          "type": "uint256"
        },
        {
          "internalType": "bytes32",
          "name": "pubKey",
          "type": "bytes32"
        },
        {
          "internalType": "bytes32",
          "name": "nonce",
          "type": "bytes32"
        }
      ],
      "name": "reveal",
      "outputs": [
        {
          "internalType": "bool",
          "name": "",
          "type": "bool"
        }
      ],
      "stateMutability": "payable",
      "type": "function"
    },
    {
      "inputs": [],
      "name": "placeDeposit",
      "outputs": [
        {
          "internalType": "bool",
          "name": "",
          "type": "bool"
        }
      ],
      "stateMutability": "payable",
      "type": "function"
    },
    {
      "inputs": [],
      "name": "withdrawDeposit",
      "outputs": [
        {
          "internalType": "bool",
          "name": "",
          "type": "bool"
        }
      ],
      "stateMutability": "nonpayable",
      "type": "function"
    },
    {
      "inputs": [
        {
          "internalType": "string",
          "name": "_data",
          "type": "string"
        }
      ],
      "name": "handOverData",
      "outputs": [
        {
          "internalType": "bool",
          "name": "",
          "type": "bool"
        }
      ],
      "stateMutability": "nonpayable",
      "type": "function"
    },
    {
      "inputs": [],
      "name": "retrieveData",
      "outputs": [
        {
          "internalType": "string",
          "name": "",
          "type": "string"
        }
      ],
      "stateMutability": "view",
      "type": "function"
    },
    {
      "inputs": [],
      "name": "getCurrentPhase",
      "outputs": [
        {
          "internalType": "enum Auction.auctionPhase",
          "name": "",
          "type": "uint8"
        }
      ],
      "stateMutability": "view",
      "type": "function"
    },
    {
      "inputs": [],
      "name": "isManualPhasing",
      "outputs": [
        {
          "internalType": "bool",
          "name": "",
          "type": "bool"
        }
      ],
      "stateMutability": "view",
      "type": "function"
    },
    {
      "inputs": [
        {
          "internalType": "enum Auction.auctionPhase",
          "name": "_phase",
          "type": "uint8"
        }
      ],
      "name": "setPhase",
      "outputs": [
        {
          "internalType": "bool",
          "name": "",
          "type": "bool"
        }
      ],
      "stateMutability": "nonpayable",
      "type": "function"
    },
    {
      "inputs": [],
      "name": "getTest",
      "outputs": [
        {
          "internalType": "uint256",
          "name": "",
          "type": "uint256"
        }
      ],
      "stateMutability": "view",
      "type": "function"
    },
    {
      "inputs": [],
      "name": "destroyContract",
      "outputs": [],
      "stateMutability": "nonpayable",
      "type": "function"
    },
    {
      "inputs": [],
      "name": "getAuctionTitle",
      "outputs": [
        {
          "internalType": "string",
          "name": "",
          "type": "string"
        }
      ],
      "stateMutability": "view",
      "type": "function"
    },
    {
      "inputs": [],
      "name": "getAuctionDescription",
      "outputs": [
        {
          "internalType": "string",
          "name": "",
          "type": "string"
        }
      ],
      "stateMutability": "view",
      "type": "function"
    },
    {
      "inputs": [],
      "name": "getAuctionMinimumBid",
      "outputs": [
        {
          "internalType": "uint256",
          "name": "",
          "type": "uint256"
        }
      ],
      "stateMutability": "view",
      "type": "function"
    },
    {
      "inputs": [],
      "name": "getOwner",
      "outputs": [
        {
          "internalType": "address",
          "name": "",
          "type": "address"
        }
      ],
      "stateMutability": "view",
      "type": "function"
    },
    {
      "inputs": [],
      "name": "getCurrentHighestBid",
      "outputs": [
        {
          "internalType": "uint256",
          "name": "",
          "type": "uint256"
        },
        {
          "internalType": "address",
          "name": "",
          "type": "address"
        }
      ],
      "stateMutability": "view",
      "type": "function"
    },
    {
      "inputs": [],
      "name": "getSecondHighestBid",
      "outputs": [
        {
          "internalType": "uint256",
          "name": "",
          "type": "uint256"
        },
        {
          "internalType": "address",
          "name": "",
          "type": "address"
        }
      ],
      "stateMutability": "view",
      "type": "function"
    }
  ],
  "bytecode": "0x60806040526000600560146101000a81548160ff021916908315150217905550600060075560006008556000601160006101000a81548160ff0219169083600381111562000052576200005162000227565b5b02179055506000601160016101000a81548160ff0219169083151502179055503480156200007f57600080fd5b5060405162002f9c38038062002f9c8339818101604052810190620000a5919062000493565b8760009081620000b69190620007db565b508660019081620000c89190620007db565b508160028190555082600360006101000a81548173ffffffffffffffffffffffffffffffffffffffff021916908373ffffffffffffffffffffffffffffffffffffffff16021790555080600460006101000a81548173ffffffffffffffffffffffffffffffffffffffff021916908373ffffffffffffffffffffffffffffffffffffffff16021790555080600560006101000a81548173ffffffffffffffffffffffffffffffffffffffff021916908373ffffffffffffffffffffffffffffffffffffffff160217905550600086118015620001a45750600085115b8015620001b15750600084115b15620001fd578542620001c59190620008f1565b600a8190555084600a54620001db9190620008f1565b600b8190555083600b54620001f19190620008f1565b600c8190555062000219565b6001601160016101000a81548160ff0219169083151502179055505b50505050505050506200094e565b7f4e487b7100000000000000000000000000000000000000000000000000000000600052602160045260246000fd5b6000604051905090565b600080fd5b600080fd5b600080fd5b600080fd5b6000601f19601f8301169050919050565b7f4e487b7100000000000000000000000000000000000000000000000000000000600052604160045260246000fd5b620002bf8262000274565b810181811067ffffffffffffffff82111715620002e157620002e062000285565b5b80604052505050565b6000620002f662000256565b9050620003048282620002b4565b919050565b600067ffffffffffffffff82111562000327576200032662000285565b5b620003328262000274565b9050602081019050919050565b60005b838110156200035f57808201518184015260208101905062000342565b838111156200036f576000848401525b50505050565b60006200038c620003868462000309565b620002ea565b905082815260208101848484011115620003ab57620003aa6200026f565b5b620003b88482856200033f565b509392505050565b600082601f830112620003d857620003d76200026a565b5b8151620003ea84826020860162000375565b91505092915050565b6000819050919050565b6200040881620003f3565b81146200041457600080fd5b50565b6000815190506200042881620003fd565b92915050565b600073ffffffffffffffffffffffffffffffffffffffff82169050919050565b60006200045b826200042e565b9050919050565b6200046d816200044e565b81146200047957600080fd5b50565b6000815190506200048d8162000462565b92915050565b600080600080600080600080610100898b031215620004b757620004b662000260565b5b600089015167ffffffffffffffff811115620004d857620004d762000265565b5b620004e68b828c01620003c0565b985050602089015167ffffffffffffffff8111156200050a576200050962000265565b5b620005188b828c01620003c0565b97505060406200052b8b828c0162000417565b96505060606200053e8b828c0162000417565b9550506080620005518b828c0162000417565b94505060a0620005648b828c016200047c565b93505060c0620005778b828c0162000417565b92505060e06200058a8b828c016200047c565b9150509295985092959890939650565b600081519050919050565b7f4e487b7100000000000000000000000000000000000000000000000000000000600052602260045260246000fd5b60006002820490506001821680620005ed57607f821691505b602082108103620006035762000602620005a5565b5b50919050565b60008190508160005260206000209050919050565b60006020601f8301049050919050565b600082821b905092915050565b6000600883026200066d7fffffffffffffffffffffffffffffffffffffffffffffffffffffffffffffffff826200062e565b6200067986836200062e565b95508019841693508086168417925050509392505050565b6000819050919050565b6000620006bc620006b6620006b084620003f3565b62000691565b620003f3565b9050919050565b6000819050919050565b620006d8836200069b565b620006f0620006e782620006c3565b8484546200063b565b825550505050565b600090565b62000707620006f8565b62000714818484620006cd565b505050565b5b818110156200073c5762000730600082620006fd565b6001810190506200071a565b5050565b601f8211156200078b57620007558162000609565b62000760846200061e565b8101602085101562000770578190505b620007886200077f856200061e565b83018262000719565b50505b505050565b600082821c905092915050565b6000620007b06000198460080262000790565b1980831691505092915050565b6000620007cb83836200079d565b9150826002028217905092915050565b620007e6826200059a565b67ffffffffffffffff81111562000802576200080162000285565b5b6200080e8254620005d4565b6200081b82828562000740565b600060209050601f8311600181146200085357600084156200083e578287015190505b6200084a8582620007bd565b865550620008ba565b601f198416620008638662000609565b60005b828110156200088d5784890151825560018201915060208501945060208101905062000866565b86831015620008ad5784890151620008a9601f8916826200079d565b8355505b6001600288020188555050505b505050505050565b7f4e487b7100000000000000000000000000000000000000000000000000000000600052601160045260246000fd5b6000620008fe82620003f3565b91506200090b83620003f3565b9250827fffffffffffffffffffffffffffffffffffffffffffffffffffffffffffffffff03821115620009435762000942620008c2565b5b828201905092915050565b61263e806200095e6000396000f3fe6080604052600436106100fe5760003560e01c8063957bb1e011610095578063a3a40ea511610064578063a3a40ea51461030c578063a8cd0a8014610337578063af697a6f14610362578063b34f12e014610392578063c03afb59146103bd576100fe565b8063957bb1e01461025b578063958195db146102985780639645279e146102c357806399a7b9a9146102ee576100fe565b80634de22024116100d15780634de220241461019d57806351e0556d146101da57806377d9168e14610205578063893d20e814610230576100fe565b8063092a5cce14610103578063117df0881461011a578063143080a11461014557806320d6c04014610171575b600080fd5b34801561010f57600080fd5b506101186103fa565b005b34801561012657600080fd5b5061012f6105b6565b60405161013c91906116fb565b60405180910390f35b34801561015157600080fd5b5061015a6108dd565b604051610168929190611770565b60405180910390f35b34801561017d57600080fd5b506101866109b9565b604051610194929190611770565b60405180910390f35b3480156101a957600080fd5b506101c460048036038101906101bf91906118f3565b610a95565b6040516101d191906116fb565b60405180910390f35b3480156101e657600080fd5b506101ef610cd3565b6040516101fc91906119c4565b60405180910390f35b34801561021157600080fd5b5061021a610ebb565b60405161022791906116fb565b60405180910390f35b34801561023c57600080fd5b50610245610ed2565b60405161025291906119e6565b60405180910390f35b34801561026757600080fd5b50610282600480360381019061027d9190611a37565b610efc565b60405161028f91906116fb565b60405180910390f35b3480156102a457600080fd5b506102ad610fba565b6040516102ba91906119c4565b60405180910390f35b3480156102cf57600080fd5b506102d861104c565b6040516102e59190611a64565b60405180910390f35b6102f6611056565b60405161030391906116fb565b60405180910390f35b34801561031857600080fd5b506103216110b5565b60405161032e9190611af6565b60405180910390f35b34801561034357600080fd5b5061034c611121565b6040516103599190611a64565b60405180910390f35b61037c60048036038101906103779190611b3d565b611129565b60405161038991906116fb565b60405180910390f35b34801561039e57600080fd5b506103a76114c4565b6040516103b491906119c4565b60405180910390f35b3480156103c957600080fd5b506103e460048036038101906103df9190611bb5565b611556565b6040516103f191906116fb565b60405180910390f35b600380600381111561040f5761040e611a7f565b5b6104176110b5565b600381111561042957610428611a7f565b5b14610469576040517f08c379a000000000000000000000000000000000000000000000000000000000815260040161046090611c2e565b60405180910390fd5b600360009054906101000a900473ffffffffffffffffffffffffffffffffffffffff1673ffffffffffffffffffffffffffffffffffffffff163373ffffffffffffffffffffffffffffffffffffffff16146104f9576040517f08c379a00000000000000000000000000000000000000000000000000000000081526004016104f090611c9a565b60405180910390fd5b600560009054906101000a900473ffffffffffffffffffffffffffffffffffffffff1673ffffffffffffffffffffffffffffffffffffffff16630fdb96ea6040518163ffffffff1660e01b8152600401600060405180830381600087803b15801561056357600080fd5b505af1158015610577573d6000803e3d6000fd5b50505050600460009054906101000a900473ffffffffffffffffffffffffffffffffffffffff1673ffffffffffffffffffffffffffffffffffffffff16ff5b600060028060038111156105cd576105cc611a7f565b5b6105d56110b5565b60038111156105e7576105e6611a7f565b5b14610627576040517f08c379a000000000000000000000000000000000000000000000000000000000815260040161061e90611c2e565b60405180910390fd5b600660009054906101000a900473ffffffffffffffffffffffffffffffffffffffff1673ffffffffffffffffffffffffffffffffffffffff163373ffffffffffffffffffffffffffffffffffffffff1603610803576000600854601060003373ffffffffffffffffffffffffffffffffffffffff1673ffffffffffffffffffffffffffffffffffffffff168152602001908152602001600020546106cb9190611ce9565b905060085481601060003373ffffffffffffffffffffffffffffffffffffffff1673ffffffffffffffffffffffffffffffffffffffff1681526020019081526020016000205461071b9190611ce9565b101561075c576040517f08c379a000000000000000000000000000000000000000000000000000000000815260040161075390611d69565b60405180910390fd5b80601060003373ffffffffffffffffffffffffffffffffffffffff1673ffffffffffffffffffffffffffffffffffffffff16815260200190815260200160002060008282546107ab9190611ce9565b925050819055503373ffffffffffffffffffffffffffffffffffffffff166108fc829081150290604051600060405180830381858888f193505050501580156107f8573d6000803e3d6000fd5b5060009250506108d9565b6000601060003373ffffffffffffffffffffffffffffffffffffffff1673ffffffffffffffffffffffffffffffffffffffff1681526020019081526020016000205490506000601060003373ffffffffffffffffffffffffffffffffffffffff1673ffffffffffffffffffffffffffffffffffffffff168152602001908152602001600020819055503373ffffffffffffffffffffffffffffffffffffffff166108fc829081150290604051600060405180830381858888f193505050501580156108d2573d6000803e3d6000fd5b5050600191505b5090565b600080600260038160038111156108f7576108f6611a7f565b5b6108ff6110b5565b600381111561091157610910611a7f565b5b1015801561094a575080600381111561092d5761092c611a7f565b5b6109356110b5565b600381111561094757610946611a7f565b5b11155b610989576040517f08c379a000000000000000000000000000000000000000000000000000000000815260040161098090611c2e565b60405180910390fd5b600854600660009054906101000a900473ffffffffffffffffffffffffffffffffffffffff169350935050509091565b600080600160038160038111156109d3576109d2611a7f565b5b6109db6110b5565b60038111156109ed576109ec611a7f565b5b10158015610a265750806003811115610a0957610a08611a7f565b5b610a116110b5565b6003811115610a2357610a22611a7f565b5b11155b610a65576040517f08c379a0000000000000000000000000000000000000000000000000000000008152600401610a5c90611c2e565b60405180910390fd5b600754600660009054906101000a900473ffffffffffffffffffffffffffffffffffffffff169350935050509091565b60006002806003811115610aac57610aab611a7f565b5b610ab46110b5565b6003811115610ac657610ac5611a7f565b5b14610b06576040517f08c379a0000000000000000000000000000000000000000000000000000000008152600401610afd90611c2e565b60405180910390fd5b600360009054906101000a900473ffffffffffffffffffffffffffffffffffffffff1673ffffffffffffffffffffffffffffffffffffffff163373ffffffffffffffffffffffffffffffffffffffff1614610b96576040517f08c379a0000000000000000000000000000000000000000000000000000000008152600401610b8d90611dd5565b60405180910390fd5b6002546008541015610bdd576040517f08c379a0000000000000000000000000000000000000000000000000000000008152600401610bd490611e41565b60405180910390fd5b60001515600560149054906101000a900460ff16151514610c33576040517f08c379a0000000000000000000000000000000000000000000000000000000008152600401610c2a90611ead565b60405180910390fd5b6001600560146101000a81548160ff0219169083151502179055508260129081610c5d91906120d9565b50600360009054906101000a900473ffffffffffffffffffffffffffffffffffffffff1673ffffffffffffffffffffffffffffffffffffffff166108fc6008549081150290604051600060405180830381858888f19350505050158015610cc8573d6000803e3d6000fd5b506001915050919050565b60606002806003811115610cea57610ce9611a7f565b5b610cf26110b5565b6003811115610d0457610d03611a7f565b5b14610d44576040517f08c379a0000000000000000000000000000000000000000000000000000000008152600401610d3b90611c2e565b60405180910390fd5b600660009054906101000a900473ffffffffffffffffffffffffffffffffffffffff1673ffffffffffffffffffffffffffffffffffffffff163373ffffffffffffffffffffffffffffffffffffffff1614610dd4576040517f08c379a0000000000000000000000000000000000000000000000000000000008152600401610dcb906121f7565b60405180910390fd5b60011515600560149054906101000a900460ff16151514610e2a576040517f08c379a0000000000000000000000000000000000000000000000000000000008152600401610e2190612263565b60405180910390fd5b60128054610e3790611efc565b80601f0160208091040260200160405190810160405280929190818152602001828054610e6390611efc565b8015610eb05780601f10610e8557610100808354040283529160200191610eb0565b820191906000526020600020905b815481529060010190602001808311610e9357829003601f168201915b505050505091505090565b6000601160019054906101000a900460ff16905090565b6000600360009054906101000a900473ffffffffffffffffffffffffffffffffffffffff16905090565b600080806003811115610f1257610f11611a7f565b5b610f1a6110b5565b6003811115610f2c57610f2b611a7f565b5b14610f6c576040517f08c379a0000000000000000000000000000000000000000000000000000000008152600401610f6390611c2e565b60405180910390fd5b82600d60003373ffffffffffffffffffffffffffffffffffffffff1673ffffffffffffffffffffffffffffffffffffffff168152602001908152602001600020819055506001915050919050565b606060008054610fc990611efc565b80601f0160208091040260200160405190810160405280929190818152602001828054610ff590611efc565b80156110425780601f1061101757610100808354040283529160200191611042565b820191906000526020600020905b81548152906001019060200180831161102557829003601f168201915b5050505050905090565b6000600254905090565b600034601060003373ffffffffffffffffffffffffffffffffffffffff1673ffffffffffffffffffffffffffffffffffffffff16815260200190815260200160002060008282546110a79190612283565b925050819055506001905090565b6000601160019054906101000a900460ff16156110e357601160009054906101000a900460ff16905061111e565b600a5442116110f5576000905061111e565b600b544211611107576001905061111e565b600c544211611119576002905061111e565b600390505b90565b600042905090565b600060018060038111156111405761113f611a7f565b5b6111486110b5565b600381111561115a57611159611a7f565b5b1461119a576040517f08c379a000000000000000000000000000000000000000000000000000000000815260040161119190611c2e565b60405180910390fd5b600060028660001b856040516020016111b49291906122fa565b6040516020818303038152906040526040516111d0919061236d565b602060405180830381855afa1580156111ed573d6000803e3d6000fd5b5050506040513d601f19601f820116820180604052508101906112109190612399565b905034601060003373ffffffffffffffffffffffffffffffffffffffff1673ffffffffffffffffffffffffffffffffffffffff16815260200190815260200160002060008282546112619190612283565b92505081905550600d60003373ffffffffffffffffffffffffffffffffffffffff1673ffffffffffffffffffffffffffffffffffffffff1681526020019081526020016000205481146112e9576040517f08c379a00000000000000000000000000000000000000000000000000000000081526004016112e090612412565b60405180910390fd5b60025486101561132e576040517f08c379a00000000000000000000000000000000000000000000000000000000081526004016113259061247e565b60405180910390fd5b601060003373ffffffffffffffffffffffffffffffffffffffff1673ffffffffffffffffffffffffffffffffffffffff168152602001908152602001600020548610156113b0576040517f08c379a00000000000000000000000000000000000000000000000000000000081526004016113a7906124ea565b60405180910390fd5b85600e60003373ffffffffffffffffffffffffffffffffffffffff1673ffffffffffffffffffffffffffffffffffffffff1681526020019081526020016000208190555084600f60003373ffffffffffffffffffffffffffffffffffffffff1673ffffffffffffffffffffffffffffffffffffffff168152602001908152602001600020819055506007548611156114a4576007546008819055508560078190555033600660006101000a81548173ffffffffffffffffffffffffffffffffffffffff021916908373ffffffffffffffffffffffffffffffffffffffff1602179055508460098190555060019250506114bc565b6008548611156114b657856008819055505b60009250505b509392505050565b6060600180546114d390611efc565b80601f01602080910402602001604051908101604052809291908181526020018280546114ff90611efc565b801561154c5780601f106115215761010080835404028352916020019161154c565b820191906000526020600020905b81548152906001019060200180831161152f57829003601f168201915b5050505050905090565b6000600360009054906101000a900473ffffffffffffffffffffffffffffffffffffffff1673ffffffffffffffffffffffffffffffffffffffff163373ffffffffffffffffffffffffffffffffffffffff16146115e8576040517f08c379a00000000000000000000000000000000000000000000000000000000081526004016115df90611c9a565b60405180910390fd5b601160009054906101000a900460ff16600381111561160a57611609611a7f565b5b82600381111561161d5761161c611a7f565b5b101561165e576040517f08c379a00000000000000000000000000000000000000000000000000000000081526004016116559061257c565b60405180910390fd5b601160019054906101000a900460ff166116ad576040517f08c379a00000000000000000000000000000000000000000000000000000000081526004016116a4906125e8565b60405180910390fd5b81601160006101000a81548160ff021916908360038111156116d2576116d1611a7f565b5b021790555060019050919050565b60008115159050919050565b6116f5816116e0565b82525050565b600060208201905061171060008301846116ec565b92915050565b6000819050919050565b61172981611716565b82525050565b600073ffffffffffffffffffffffffffffffffffffffff82169050919050565b600061175a8261172f565b9050919050565b61176a8161174f565b82525050565b60006040820190506117856000830185611720565b6117926020830184611761565b9392505050565b6000604051905090565b600080fd5b600080fd5b600080fd5b600080fd5b6000601f19601f8301169050919050565b7f4e487b7100000000000000000000000000000000000000000000000000000000600052604160045260246000fd5b611800826117b7565b810181811067ffffffffffffffff8211171561181f5761181e6117c8565b5b80604052505050565b6000611832611799565b905061183e82826117f7565b919050565b600067ffffffffffffffff82111561185e5761185d6117c8565b5b611867826117b7565b9050602081019050919050565b82818337600083830152505050565b600061189661189184611843565b611828565b9050828152602081018484840111156118b2576118b16117b2565b5b6118bd848285611874565b509392505050565b600082601f8301126118da576118d96117ad565b5b81356118ea848260208601611883565b91505092915050565b600060208284031215611909576119086117a3565b5b600082013567ffffffffffffffff811115611927576119266117a8565b5b611933848285016118c5565b91505092915050565b600081519050919050565b600082825260208201905092915050565b60005b8381101561197657808201518184015260208101905061195b565b83811115611985576000848401525b50505050565b60006119968261193c565b6119a08185611947565b93506119b0818560208601611958565b6119b9816117b7565b840191505092915050565b600060208201905081810360008301526119de818461198b565b905092915050565b60006020820190506119fb6000830184611761565b92915050565b6000819050919050565b611a1481611a01565b8114611a1f57600080fd5b50565b600081359050611a3181611a0b565b92915050565b600060208284031215611a4d57611a4c6117a3565b5b6000611a5b84828501611a22565b91505092915050565b6000602082019050611a796000830184611720565b92915050565b7f4e487b7100000000000000000000000000000000000000000000000000000000600052602160045260246000fd5b60048110611abf57611abe611a7f565b5b50565b6000819050611ad082611aae565b919050565b6000611ae082611ac2565b9050919050565b611af081611ad5565b82525050565b6000602082019050611b0b6000830184611ae7565b92915050565b611b1a81611716565b8114611b2557600080fd5b50565b600081359050611b3781611b11565b92915050565b600080600060608486031215611b5657611b556117a3565b5b6000611b6486828701611b28565b9350506020611b7586828701611a22565b9250506040611b8686828701611a22565b9150509250925092565b60048110611b9d57600080fd5b50565b600081359050611baf81611b90565b92915050565b600060208284031215611bcb57611bca6117a3565b5b6000611bd984828501611ba0565b91505092915050565b7f57726f6e672061756374696f6e20706861736521000000000000000000000000600082015250565b6000611c18601483611947565b9150611c2382611be2565b602082019050919050565b60006020820190508181036000830152611c4781611c0b565b9050919050565b7f596f7520617265206e6f74207468652073656c6c657200000000000000000000600082015250565b6000611c84601683611947565b9150611c8f82611c4e565b602082019050919050565b60006020820190508181036000830152611cb381611c77565b9050919050565b7f4e487b7100000000000000000000000000000000000000000000000000000000600052601160045260246000fd5b6000611cf482611716565b9150611cff83611716565b925082821015611d1257611d11611cba565b5b828203905092915050565b7f546869732073686f756c64204e4f542068617070656e21000000000000000000600082015250565b6000611d53601783611947565b9150611d5e82611d1d565b602082019050919050565b60006020820190508181036000830152611d8281611d46565b9050919050565b7f596f7520617265206e6f74207468652073656c6c657221000000000000000000600082015250565b6000611dbf601783611947565b9150611dca82611d89565b602082019050919050565b60006020820190508181036000830152611dee81611db2565b9050919050565b7f4e6f206f6e652077616e74277320746f2062757920796f757220736869742100600082015250565b6000611e2b601f83611947565b9150611e3682611df5565b602082019050919050565b60006020820190508181036000830152611e5a81611e1e565b9050919050565b7f596f7520616c726561647920676f7420796f7572206d6f6e6579210000000000600082015250565b6000611e97601b83611947565b9150611ea282611e61565b602082019050919050565b60006020820190508181036000830152611ec681611e8a565b9050919050565b7f4e487b7100000000000000000000000000000000000000000000000000000000600052602260045260246000fd5b60006002820490506001821680611f1457607f821691505b602082108103611f2757611f26611ecd565b5b50919050565b60008190508160005260206000209050919050565b60006020601f8301049050919050565b600082821b905092915050565b600060088302611f8f7fffffffffffffffffffffffffffffffffffffffffffffffffffffffffffffffff82611f52565b611f998683611f52565b95508019841693508086168417925050509392505050565b6000819050919050565b6000611fd6611fd1611fcc84611716565b611fb1565b611716565b9050919050565b6000819050919050565b611ff083611fbb565b612004611ffc82611fdd565b848454611f5f565b825550505050565b600090565b61201961200c565b612024818484611fe7565b505050565b5b818110156120485761203d600082612011565b60018101905061202a565b5050565b601f82111561208d5761205e81611f2d565b61206784611f42565b81016020851015612076578190505b61208a61208285611f42565b830182612029565b50505b505050565b600082821c905092915050565b60006120b060001984600802612092565b1980831691505092915050565b60006120c9838361209f565b9150826002028217905092915050565b6120e28261193c565b67ffffffffffffffff8111156120fb576120fa6117c8565b5b6121058254611efc565b61211082828561204c565b600060209050601f8311600181146121435760008415612131578287015190505b61213b85826120bd565b8655506121a3565b601f19841661215186611f2d565b60005b8281101561217957848901518255600182019150602085019450602081019050612154565b868310156121965784890151612192601f89168261209f565b8355505b6001600288020188555050505b505050505050565b7f596f75277265206e6f7420746865206869676865737420626964646572210000600082015250565b60006121e1601e83611947565b91506121ec826121ab565b602082019050919050565b60006020820190508181036000830152612210816121d4565b9050919050565b7f44617461206973206e6f74207965742068616e646564206f7665722100000000600082015250565b600061224d601c83611947565b915061225882612217565b602082019050919050565b6000602082019050818103600083015261227c81612240565b9050919050565b600061228e82611716565b915061229983611716565b9250827fffffffffffffffffffffffffffffffffffffffffffffffffffffffffffffffff038211156122ce576122cd611cba565b5b828201905092915050565b6000819050919050565b6122f46122ef82611a01565b6122d9565b82525050565b600061230682856122e3565b60208201915061231682846122e3565b6020820191508190509392505050565b600081519050919050565b600081905092915050565b600061234782612326565b6123518185612331565b9350612361818560208601611958565b80840191505092915050565b6000612379828461233c565b915081905092915050565b60008151905061239381611a0b565b92915050565b6000602082840312156123af576123ae6117a3565b5b60006123bd84828501612384565b91505092915050565b7f57726f6e67206269644861736821000000000000000000000000000000000000600082015250565b60006123fc600e83611947565b9150612407826123c6565b602082019050919050565b6000602082019050818103600083015261242b816123ef565b9050919050565b7f596f752062696420746f6f206c6974746c652100000000000000000000000000600082015250565b6000612468601383611947565b915061247382612432565b602082019050919050565b600060208201905081810360008301526124978161245b565b9050919050565b7f4e6f7420656e6f756768206d6f6e657920706169642100000000000000000000600082015250565b60006124d4601683611947565b91506124df8261249e565b602082019050919050565b60006020820190508181036000830152612503816124c7565b9050919050565b7f44656372656173696e6720706861736520697320666f7262696464656e21204360008201527f6f756c6420656e6420696e20756e646566696e6564206265686176696f757221602082015250565b6000612566604083611947565b91506125718261250a565b604082019050919050565b6000602082019050818103600083015261259581612559565b9050919050565b7f4e6f742070686173696e67206d616e75616c6c79210000000000000000000000600082015250565b60006125d2601583611947565b91506125dd8261259c565b602082019050919050565b60006020820190508181036000830152612601816125c5565b905091905056fea26469706673582212204c725525bf6ecefd28293cc6774b2a02289197df55aee2f2bfa0f779afd330e064736f6c634300080f0033",
  "immutableReferences": {},
  "source": "// SPDX-License-Identifier: MIT\n\npragma solidity >=0.7.0 <0.9.0;\n\nimport \"./2_Spawner.sol\";\n\ncontract Auction {\n    //Auktionsdaten\n    string title;\n    string description;\n    uint minimumBid;\n\n    //Besitzer\n    address seller;\n    address spawner_addr;\n    Spawner spawner;\n    bool dataReceived = false;\n\n    //Hchstgebote\n    address highestBidder;\n    uint highestBid = 0;\n    uint secondHighestBid = 0;\n    bytes32 highestPubKey;\n\n    //Zeitverwaltung\n    uint auctionClose;\n    uint revealClose;\n    uint closeClose;\n\n    //Datenmappings\n    mapping(address => bytes32) private bidHashes;\n    mapping(address => uint256) private actualBids; //TEST\n    mapping(address => bytes32) private pubKeys; //TEST\n    mapping(address => uint) private balances;\n\n    //Verwaltung der Phase\n    enum auctionPhase{Bidding, Reveal, Closed, Free2Kill}\n    auctionPhase currentPhase = auctionPhase.Bidding;\n    bool manualPhasing = false;\n\n    //Vom seller bergebene Daten\n    string soldData;\n\n    //Prft in welcher Phase die Aktion sich gerade befindet\n    modifier inPhase(auctionPhase _phase){require(getCurrentPhase() == _phase, \"Wrong auction phase!\"); _;}\n\tmodifier betweenPhase(auctionPhase _first, auctionPhase _last) {require(getCurrentPhase() >= _first && getCurrentPhase() <= _last, \"Wrong auction phase!\"); _;}\n\n    constructor(string memory _title, string memory _description, \n    uint _bidding_duration, uint  _reveal_duration, uint  _closed_duration, \n    address _seller, uint _minimum_bid, address _spawner_addr)\n    {\n        title = _title;\n        description = _description;\n        minimumBid = _minimum_bid;\n\n        seller = _seller;\n        spawner_addr = _spawner_addr;\n        spawner = Spawner(_spawner_addr);\n\n        //Falls in einer Zeit 0 angegeben wird fr Prsentationszwecke,\n        //Kann die Phase der Auktion manuell gesteuert werden\n        if(_bidding_duration > 0 && _reveal_duration > 0 && _closed_duration > 0){\n            auctionClose = block.timestamp + _bidding_duration;\n            revealClose = auctionClose + _reveal_duration;\n            closeClose = revealClose + _closed_duration;\n        }else{\n            manualPhasing = true;\n        }\n    }\n\n    /*\n        bidHash is sha256(bid_amount, nonce)\n    */\n    function bid(bytes32 bidHash) \n    inPhase(auctionPhase.Bidding)\n    public returns(bool)\n    {\n        bidHashes[msg.sender] = bidHash;\n        return true;\n    }\n\n    /*\n        pubKey is the key, the user want's the data (or encryption key) encrypted with\n    */\n    function reveal(uint256 amount, bytes32 pubKey, bytes32 nonce)\n    inPhase(auctionPhase.Reveal)\n    public payable returns(bool)\n    {\n        \n        //Hashprfung\n        bytes32 computedHash = sha256(bytes.concat(bytes32(amount), bytes32(nonce)));\n        balances[msg.sender] += msg.value;\n\n        \n        require(computedHash == bidHashes[msg.sender], \"Wrong bidHash!\");\n        require(amount >= minimumBid, \"You bid too little!\");\n        require(amount >= balances[msg.sender], \"Not enough money paid!\");\n\n        //Buchfhrung\n        actualBids[msg.sender] = amount; // TEST\n        pubKeys[msg.sender] = pubKey; //TEST\n\n        if (amount > highestBid){\n            secondHighestBid = highestBid;\n            highestBid = amount;\n            highestBidder = msg.sender;\n            highestPubKey = pubKey;\n\n            return true;\n        }else if(amount > secondHighestBid){\n            secondHighestBid = amount;\n        }\n\n        return false;\n    }\n\n    /*\n        kind of unnecessary\n    */\n    function placeDeposit() public payable returns(bool){\n        balances[msg.sender] += msg.value;\n        return true;\n    }\n\n    function withdrawDeposit() public \n    inPhase(auctionPhase.Closed)\n    returns(bool){ \n        if(msg.sender == highestBidder){\n            uint returnAmount = balances[msg.sender] - secondHighestBid;\n            require(balances[msg.sender] - returnAmount >= secondHighestBid, \"This should NOT happen!\");\n\n            balances[msg.sender] -= returnAmount;\n            payable(msg.sender).transfer(returnAmount);\n            \n            return false;\n        }else{\n            uint returnAmount = balances[msg.sender];\n            balances[msg.sender] = 0;\n            payable(msg.sender).transfer(returnAmount);\n        }\n\n        return true;\n    }\n\n    /*\n        _data should be encrypted with highestPubKey\n    */\n    function handOverData(string memory _data) public \n    inPhase(auctionPhase.Closed)\n    returns(bool){\n        require(msg.sender == seller, \"You are not the seller!\");\t// TODO new\n        require(secondHighestBid >= minimumBid, \"No one want's to buy your shit!\");\n        require(dataReceived == false, \"You already got your money!\");\n        dataReceived = true;\n        soldData = _data;\n        payable(seller).transfer(secondHighestBid);\n        return true;\n    }\n\n    function retrieveData() public view\n    inPhase(auctionPhase.Closed)\n    returns(string memory){\n\n        require(msg.sender == highestBidder, \"You're not the highest bidder!\");\n        require(dataReceived == true, \"Data is not yet handed over!\");\n\n        return soldData;\n    }\n\n    function getCurrentPhase() public view returns(auctionPhase){\n        if(manualPhasing){\n            return currentPhase;\n        }else if(block.timestamp <= auctionClose){\n            return auctionPhase.Bidding;\n        }else if(block.timestamp <= revealClose){\n            return auctionPhase.Reveal;\n        }else if(block.timestamp <= closeClose){\n            return auctionPhase.Closed;\n        }else{\n            return auctionPhase.Free2Kill;\n        }\n    }\n\t\n\t// TODO new\n\tfunction isManualPhasing() public view returns(bool) {\n\t\treturn manualPhasing;\n\t}\n\n    function setPhase(auctionPhase _phase) public returns(bool){\n\t\trequire(msg.sender == seller, \"You are not the seller\");\t// TODO new\n\t\trequire(_phase >= currentPhase, \"Decreasing phase is forbidden! Could end in undefined behaviour!\");\t// TODO\n        require(manualPhasing, \"Not phasing manually!\");\n        currentPhase = _phase;\n        return true;\n    }\n\n    function getTest() public view returns(uint){\n        return block.timestamp;\n    }\n\n    function destroyContract() public \n    inPhase(auctionPhase.Free2Kill)\n    {\n\t\trequire(msg.sender == seller, \"You are not the seller\");\t// TODO new\n        spawner.removeAuctionFromList();\n        selfdestruct(payable(spawner_addr));\n    }\n\n    function getAuctionTitle() public view returns(string memory){\n        return title;\n    }\n\n    function getAuctionDescription() public view returns(string memory){\n        return description;\n    }\n\n    function getAuctionMinimumBid() public view returns(uint){\n        return minimumBid;\n    }\n\t\n\t// TODO new\n\tfunction getOwner() public view returns(address) {\n\t\treturn seller;\n\t}\n\t\n\t// TODO new\n\t// returns current highest bid and address\n\tfunction getCurrentHighestBid() public view \n\tbetweenPhase(auctionPhase.Reveal, auctionPhase.Free2Kill)\n\treturns(uint, address) {\n\t\treturn (highestBid, highestBidder);\n\t}\n\t\n\t// TODO new\n\t// returns address of winner and price (second highest bid)\n\tfunction getSecondHighestBid() public view\n\tbetweenPhase(auctionPhase.Closed, auctionPhase.Free2Kill)\n\treturns(uint, address) {\n\t\treturn (secondHighestBid, highestBidder);\n\t}\n}",
  "sourcePath": "/Users/alexharrisson/Documents/uni/Blockchain/lab/bct22aaaa/react-gui/src/contracts/1_Auction.sol",
  "compiler": {
    "name": "solc",
    "version": "0.8.15+commit.e14f2714.Emscripten.clang"
  },
  "schemaVersion": "3.4.7",
  "updatedAt": "2022-07-06T16:29:18.242Z",
  "devdoc": {
    "kind": "dev",
    "methods": {},
    "version": 1
  },
  "userdoc": {
    "kind": "user",
    "methods": {},
    "version": 1
  }
}